00COTAHIST.2021BOVESPA 20210129                                                                                                                                                                                                                      
012021010402A1AP34      010ADVANCE AUTODRN          R$  000000000511000000000052030000000005062000000000519100000000051900000000005180000000000613200022000000000000006425000000000033355875000000000000009999123100000010000000000000BRA1APBDR001105
012021010402A1BB34      010ABB LTD     DRN          R$  000000000368000000000037320000000003674000000000370100000000037180000000003729000000000000000022000000000000000058000000000000214677000000000000009999123100000010000000000000BRA1BBBDR009100
012021010402A1BM34      010ABIOMED INC DRN          R$  000000004094200000000416600000000040942000000004152700000000415300000000000000000000000000000019000000000000000326000000000013537963000000000000009999123100000010000000000000BRA1BMBDR006100
012021010402A1CR34      010AMCOR PLC   DRN          R$  000000000585000000000060100000000005850000000000597600000000059770000000005851000000000000000004000000000000001103000000000006592556000000000000009999123100000010000000000000BRA1CRBDR003101
012021010402A1EE34      010AMEREN CORP DRN          R$  000000001996000000000199600000000019960000000001996000000000199600000000015920000000002125000001000000000000000400000000000007984000000000000000009999123100000010000000000000BRA1EEBDR007104
012021010402A1EG34      010AEGON NV    DRN          R$  000000000203400000000020500000000002011000000000204600000000020470000000002041000000000204700011000000000000000093000000000000190290000000000000009999123100000010000000000000BRA1EGBDR002100
012021010402A1EN34      010ALLIANT ENERDRN          R$  000000002646100000000266240000000026461000000002662200000000266240000000025880000000002959600002000000000000000303000000000008066583000000000000009999123100000010000000000000BRA1ENBDR008104
012021010402A1EP34      010AMERICAN ELEDRN          R$  000000002148000000000214800000000021480000000002148000000000214800000000000000000000000000000001000000000000000300000000000006444000000000000000009999123100000010000000000000BRA1EPBDR003104